:100000000C9462000C9454100C942D100C948A00E3
:100010000C948A000C948A000C948A000C948A0038
:100020000C948A000C948A000C948A000C947B1027
:100030000C948A000C948A000C948A000C948A0018
:100040000C94E30F0C948A000C94B10F0C948B0F5A
:100050000C948A000C948A000C948A000C948A00F8
:100060000C948A000C948A000000000024002700F1
:100070002A0000000000250028002B0000000000DE
:1000800023002600290004040404040404040202DA
:100090000202020203030303030301020408102007
:1000A0004080010204081020010204081020000012
:1000B0000008000201000003040700000000000027
:1000C00000005B1111241FBECFEFD8E0DEBFCDBF13
:1000D00013E0A0E0B1E0E8EDF5E302C005900D9279
:1000E000A035B107D9F727E0A0E5B3E001C01D9224
:1000F000A338B207E1F710E0C2E6D0E004C02197D0
:10010000FE010E94C218C136D107C9F70E948D12A4
:100110000C94EA1A0C940000CF92DF92EF92FF92B7
:10012000CF93DF93EC0181E080936C03CA8CDB8C6E
:10013000EC8CFD8C20E030E040E85FEBC701B601BD
:100140000E94AD1687FD54C020E030E040E85FE338
:10015000C701B6010E940C18181634F4C12CD12C1A
:1001600030E8E32E3FE3F32E20E030E040E85FE3A9
:10017000C701B6010E94411620E030E046E154EC90
:100180000E94111820E030E040E05FE30E94111867
:1001900020E030E041EE54E40E9441160E94241712
:1001A00070936B0360936A03CC80DD80EE80FF80E8
:1001B00020E030E0A901C701B6010E940C18181612
:1001C000F4F42DEC3CEC4CEC5CE3C701B6010E946E
:1001D000AD1687FF48C08CED95E09093690380933E
:1001E0006803DF91CF91FF90EF90DF90CF9008955B
:1001F000C12CD12C20E8E22E2FEBF22EB5CF2DEC26
:100200003CEC4CEC5CEBC701B6010E940C181816D4
:1002100014F320E030E0A901C701B6010E94AD1639
:1002200087FD53C020E030E040E85FEBC701B60136
:100230000E940C18181634F4C12CD12C80E8E82E3A
:100240008FEBF82E20E030E040EA52ECC701B60117
:100250000E9411189B01AC0160E070E88CEA94E404
:100260000E94401627C020E030E0A901C701B60176
:100270000E94AD1687FD25C020E030E040E85FE336
:10028000C701B6010E940C18181634F4C12CD12CE9
:1002900090E8E92E9FE3F92E20E030E048E453E4B3
:1002A000C701B6010E94111820E030E048EC54E488
:1002B0000E9441160E94241770936903609368039B
:1002C00090CFC12CD12C7601E7CFC12CD12C760157
:1002D000B9CFAF92BF92CF92DF92EF92FF920F937E
:1002E0001F93CF93DF936C017B018B01040F151FCC
:1002F000EB015E01AE18BF08C017D10759F0699134
:10030000D601ED91FC910190F081E02DC601099597
:10031000892B79F7C501DF91CF911F910F91FF9044
:10032000EF90DF90CF90BF90AF900895FC01538D78
:10033000448D252F30E0842F90E0821B930B5417BF
:1003400010F0CF96089501970895FC01918D828D4C
:10035000981761F0A28DAE0FBF2FB11D5D968C91E5
:10036000928D9F5F9F73928F90E008958FEF9FEF24
:100370000895FC01918D828D981731F0828DE80FE0
:10038000F11D858D90E008958FEF9FEF0895FC019A
:10039000918D228D892F90E0805C9F4F821B910967
:1003A0008F73992708958AE993E00E94C70121E09D
:1003B000892B09F420E0822F089580E090E0892BBA
:1003C00029F00E94D30181110C9400000895FC01D2
:1003D000A48DA80FB92FB11DA35ABF4F2C91848DA6
:1003E00090E001968F739927848FA689B7892C9303
:1003F000A089B1898C91837080648C93938D848D56
:10040000981306C00288F389E02D80818F7D808358
:100410000895EF92FF920F931F93CF93DF93EC0118
:1004200081E0888F9B8D8C8D98131AC0E889F9899B
:10043000808185FF15C09FB7F894EE89FF8960839E
:10044000E889F98980818370806480839FBF81E01F
:1004500090E0DF91CF911F910F91FF90EF90089561
:10046000F62E0B8D10E00F5F1F4F0F731127E02E3C
:100470008C8D8E110CC00FB607FCFACFE889F98974
:10048000808185FFF5CFCE010E94E701F1CFEB8D92
:10049000EC0FFD2FF11DE35AFF4FF0829FB7F89448
:1004A0000B8FEA89FB8980818062CFCFCF93DF9366
:1004B000EC01888D8823B9F0AA89BB89E889F9897C
:1004C0008C9185FD03C0808186FD0DC00FB607FCB1
:1004D000F7CF8C9185FFF2CF808185FFEDCFCE01E4
:1004E0000E94E701E9CFDF91CF910895833081F039
:1004F00028F4813099F08230A9F008958730A9F06E
:100500008830C9F08430B1F4809180008F7D03C0C1
:10051000809180008F7780938000089584B58F77D5
:1005200084BD089584B58F7DFBCF8091B0008F7717
:100530008093B00008958091B0008F7DF9CFCF9364
:10054000DF93282F30E0F901E255FF4F8491F90144
:10055000E656FF4FD491F901EA57FF4FC491CC23DF
:10056000A1F081110E947602EC2FF0E0EE0FFF1F48
:10057000E458FF4FA591B491EC91ED2381E090E018
:1005800009F480E0DF91CF91089580E090E0FACF08
:100590001F93CF93DF93282F30E0F901E255FF4FEF
:1005A0008491F901E656FF4FD491F901EA57FF4FC4
:1005B000C491CC23A9F0162F81110E947602EC2F52
:1005C000F0E0EE0FFF1FEE58FF4FA591B4918FB7EB
:1005D000F894EC91111108C0D095DE23DC938FBF05
:1005E000DF91CF911F910895DE2BF8CFCF93DF934A
:1005F00090E0FC01E656FF4F24918A579F4FFC0183
:1006000084918823D1F090E0880F991FFC01E8596C
:10061000FF4FA591B491FC01EE58FF4FC591D491C5
:1006200061110EC09FB7F8948C91E22FE0958E2354
:100630008C932881E223E8839FBFDF91CF910895B7
:100640008FB7F894EC91E22BEC938FBFF6CF3FB7C6
:10065000F89480915E0390915F03A0916003B09144
:10066000610326B5A89B05C02F3F19F00196A11D77
:10067000B11D3FBFBA2FA92F982F8827BC01CD01EC
:10068000620F711D811D911D42E0660F771F881F4B
:10069000991F4A95D1F708958F929F92AF92BF927A
:1006A000CF92DF92EF92FF924B015C010E942703F1
:1006B0006B017C010E9427036C197D098E099F093B
:1006C000683E734081059105A8F321E0821A9108E4
:1006D000A108B10888EEC80E83E0D81EE11CF11C09
:1006E00081149104A104B10429F7FF90EF90DF90E9
:1006F000CF90BF90AF909F908F9008952FB7F894B0
:1007000060915A0370915B0380915C0390915D034B
:100710002FBF08950895DC01EC91EC3090F511960F
:100720008C91119728E830E0281B310987FD33951B
:10073000220F331F220F331F6217730784F01296A4
:100740008C9128E532E0281B310987FD3395220F73
:10075000331F220F331F621773070CF49B012250C3
:100760003109220F331F4FB7F8948E2F90E0FC0110
:10077000EE0FFF1FE80FF91FEB58FC4F3283218368
:100780004FBF0895892B79F41092800082E0809306
:1007900081001092850010928400B19A80916F00C0
:1007A000826080936F0008958A549D4FFC01808180
:1007B000089582EA91E0089583EC91E00895FC01A8
:1007C00086A197A10895AF92BF92CF92DF92EF9248
:1007D000FF920F931F93CF93DF9300D000D01F920F
:1007E000CDB7DEB7643671054CF0FC01EA54FD4F1D
:1007F0002081F12CE12C222309F476C0DA017B015F
:100800008C01BC01695C7E4FED91FC910190F081FF
:10081000E02DCA010995680120EDC21A2EEFD20A17
:100820002FEFD6012C93F801EF5CFE4F2EEF2083C3
:1008300031968083319690833196292F280F209509
:1008400020833196E0821696FC9245E050E030E03D
:1008500020E0DC011696A417B50734F06191260F4D
:10086000311D4F5F5F4FF7CF7C01B8E0EB0EF11CFD
:10087000800F911FFC01E95CFE4F20952083E9E188
:10088000EE16E1E0FE06B4F45601C5018C199D098F
:100890008E159F054CF5D80112968D919C91F5010E
:1008A00061915F01DC01ED91FC910190F081E02DFF
:1008B0000995EBCF8AE591E09A83898383E08B8366
:1008C00087ED91E09D838C83D801ED91FC9101909F
:1008D000F081E02DAE014F5F5F4F67E070E0C8012F
:1008E0000995EE24EA94FE2CC7010F900F900F900B
:1008F0000F900F90DF91CF911F910F91FF90EF908C
:10090000DF90CF90BF90AF9008950F931F93CF9338
:10091000DF93CDB7DEB72A970FB6F894DEBF0FBED0
:10092000CDBF8C018EE491E09A8389831B821C8267
:100930001D821E821F82188619861A86D801ED91A3
:10094000FC910190F081E02DAE014F5F5F4F6AE0B6
:1009500070E0C80109950E947E03F80160877187E5
:10096000828793872A960FB6F894DEBF0FBECDBF5D
:10097000DF91CF911F910F910895CF92DF92EF9267
:10098000FF92DC011D921D921D921C921397FB0198
:1009900030E020E0419150E0022E02C0440F551F8C
:1009A0000A94E2F7052E000C660B770BCD90DD90D4
:1009B000ED90FC9013974C295D296E297F294D936A
:1009C0005D936D937C931397285F3F4F20323105E1
:1009D00009F7FF90EF90DF90CF900895FC014083DE
:1009E0005183128213820895CF92DF92EF92FF9289
:1009F0000F931F93CF93DF93EC010E9427036B01AA
:100A00007C018E01000F111FF801EC59FC4F808111
:100A10000E949F029C0191E02115310509F490E0AC
:100A2000DE01AE59BC4F8C91891769F0CC0FDD1FE8
:100A3000CC0FDD1F232B81F0C05BDC4FC882D98235
:100A4000EA82FB829C93DF91CF911F910F91FF90DF
:100A5000EF90DF90CF900895F801E359FC4FC05B11
:100A6000DC4F28813981C21AD30AD182C082EACFF1
:100A700090E080E00C94F40481E090E00C94F404A5
:100A800080E192E0089581E392E00895FB014081C6
:100A9000518162817381FC01428353836483758336
:100AA00084E090E00895DC01FB0112964C911297CE
:100AB00013962C91139714969C91149715968C91DC
:100AC000408321839283838384E090E0089580E4CF
:100AD00092E0089581E692E0089587E792E0089514
:100AE0008AE091E0089588E992E0089589EB92E028
:100AF00008954F925F926F927F928F929F92AF92E2
:100B0000BF92EF92FF920F931F93CF93DF9300D08A
:100B100000D0CDB7DEB77C018B01FB018191BF0115
:100B2000F7018283CE0101960E94BD0489819A81DA
:100B3000AB81BC814C015D01F5E08F0E911CA11CC5
:100B4000B11CA8014C5F5F4FFA0125E030E029019C
:100B5000712C612C481459046A047B0428F46181C7
:100B600061932F5F3F4FF3CFF801E80FF91F148215
:100B7000F7015483438305960F900F900F900F90C9
:100B8000DF91CF911F910F91FF90EF90BF90AF90A9
:100B90009F908F907F906F905F904F9008958CEC16
:100BA00092E008958DEE92E008954F925F926F92D9
:100BB0007F928F929F92AF92BF92CF92DF92EF92ED
:100BC000FF920F931F93CF93DF93CDB7DEB72C9790
:100BD0000FB6F894DEBF0FBECDBF7C018B01DB01E9
:100BE0008C9190E0F7019383828311962C91922B44
:100BF000938382836E5F7F4FCE0101960E94BD0476
:100C000089809A80AB80BC8024013501F6E04F0ECC
:100C1000511C611C711C98012B5F3F4FF90186E04C
:100C200090E0AC0170E060E044155505660577057D
:100C300020F4418141930196F4CFB4016A5F7F4F64
:100C4000F801E80DF91D1582D70115963C932E93F6
:100C50001497600F711FCE0105960E94BD04BAE083
:100C60008B0E911C4D805E806F807884C401092CAE
:100C7000000CAA0BBB0B5C016D01A40CB51CC61CBF
:100C8000D71CF801E80DF91DAF01401B510B70E0B6
:100C900060E04A155B056C057D0538F42191AF01D4
:100CA00042505109DA012C93EFCF480C591CB8017E
:100CB000640D751DFB0131971082C4010197800FEF
:100CC000911FF70197838683CE0109960E94BD0488
:100CD00092012C5F3F4F89849A84AB84BC84A90124
:100CE000032E000C660B770B480D591D6A1D7B1DEA
:100CF000F801E20FF31FCF01801B910BB0E0A0E0E1
:100D000084179507A607B70728F48191DF0112978A
:100D10008C93F1CFC901880D991DF801E80FF91FD7
:100D2000DF0111971C9221503109020F131FD701C7
:100D300019961C930E9318972181428150E070E020
:100D400060E0BA0155274427522B2081422B238192
:100D5000722BF701428753876487758704962C9618
:100D60000FB6F894DEBF0FBECDBFDF91CF911F91BC
:100D70000F91FF90EF90DF90CF90BF90AF909F903A
:100D80008F907F906F905F904F90089586E093E0F2
:100D9000089587E293E00895FC01DB014C9150E057
:100DA00070E060E0428353836483758311968C9175
:100DB0001197582B428353836483758312968C91C9
:100DC0001297682B428353836483758313968C91A7
:100DD0001397782B428353836483758314964C91C5
:100DE000149750E070E060E0468357836087718716
:100DF00015968C911597582B46835783608771877A
:100E000016968C911697682B468357836087718757
:100E100017968C91782B468357836087718788E07B
:100E200090E00895DC01FB0112968C91129780836B
:100E300013968C911397818314968C9114978283C7
:100E400015968C911597838316968C9116978483AB
:100E500017968C911797858318968C91189786838F
:100E600019968C91878388E090E00895CF92DF9265
:100E7000EF92FF920F931F93FC01DB01C3800C2DB7
:100E800010E030E020E045E036952795179507956E
:100E90004A95D1F70D931D932D933C93139784811D
:100EA000C82ED12CF12CE12C53E0CC0CDD1CEE1C17
:100EB000FF1C5A95D1F7C02AD12AE22AF32ACD92F3
:100EC000DD92ED92FC9213978581082F10E030E0BF
:100ED00020E06BE0000F111F221F331F6A95D1F72E
:100EE0000C291D292E293F290D931D932D933C93E9
:100EF0001397468150E070E060E083E1440F551F96
:100F0000661F771F8A95D1F744275527687777277B
:100F1000042B152B262B372B0D931D932D933C93D0
:100F20001397478150E070E060E094E0440F551F54
:100F3000661F771F9A95D1F7407F577066277727EE
:100F4000C680D12CF12CE12C84E0F694E794D79460
:100F5000C7948A95D1F74C295D296E297F294115BF
:100F6000510561057105A1F04058534061097109AF
:100F700097E1440F551F661F771F9A95D1F7402BB5
:100F8000512B622B732B4D935D936D937C93139731
:100F9000478150E070E060E0742F662755274427B2
:100FA00044275527662770780D911D912D913C910E
:100FB0001397402B512B622B732B4D935D936D93A5
:100FC0007C93139788E090E01F910F91FF90EF9032
:100FD000DF90CF900895EF92FF920F931F93CF93DE
:100FE000DF938C017B01BC016E5F7F4FC7010E94C4
:100FF0003607EC01B8016A5F7F4FC7018C0F9D1F58
:101000000E943607C80FD91FB801665F7F4FC7011E
:101010008C0F9D1F0E9436078C0F9D1FDF91CF9173
:101020001F910F91FF90EF900895EF92FF920F9311
:101030001F93CF93DF937C01EB0102960E94EB0795
:101040008C01BE01680F791FC70140960E94EB0713
:10105000800F911FDF91CF911F910F91FF90EF9023
:1010600008950F931F93CF93DF938C01EC01269685
:10107000CE010E941508D8019496ED91FC91CE0105
:10108000DF91CF911F910F9109948F929F92AF9210
:10109000BF92CF92DF92EF92FF92CF93DF93EC015A
:1010A0004A015B01DB01CA0147E1B595A795979518
:1010B00087954A95D1F79927AA27BB270097A105BD
:1010C000B10521F080589C4FAF4FBF4F1882198255
:1010D0001A82B501A40125E0440F551F661F771F32
:1010E0002A95D1F74B83B501A40133E07595679537
:1010F000579547953A95D1F74C83B501A401EBE09C
:101100007595679557954795EA95D1F74D83B50144
:10111000A401F3E17595679557954795FA95D1F731
:101120004F706C017D0124E0CC0CDD1CEE1CFF1C1B
:101130002A95D1F74C294E836C017D0134E0F5945A
:10114000E794D794C7943A95D1F720E030E0A9010D
:10115000C501B4010E94AD1687FD0EC0CF8288E0A4
:1011600090E0DF91CF91FF90EF90DF90CF90BF9014
:10117000AF909F908F9008958C2D80688F83EFCFD4
:10118000EF92FF920F931F93CF93DF937C018B011C
:10119000FC014281538164817581C8010E94450828
:1011A000EC01F7014681578160857185C8018C0F7C
:1011B0009D1F0E944508C80FD91FF701428553851E
:1011C00064857585C8018C0F9D1F0E9445088C0F92
:1011D0009D1FDF91CF911F910F91FF90EF90089588
:1011E000EF92FF920F931F93CF93DF937C01EB015C
:1011F00002960E94C0088C01BE01680F791FC701CA
:1012000040960E94C008800F911FDF91CF911F91DF
:101210000F91FF90EF9008952F923F924F925F921F
:101220006F927F928F929F92AF92BF92CF92DF92F6
:10123000EF92FF920F931F93CF93DF93CDB7DEB75B
:101240002E970FB6F894DEBF0FBECDBF8C016B0199
:10125000DB018D909D90AD90BC90FC0182819381CB
:10126000A481B58188159905AA05BB0570F4B40160
:10127000660F771F660F771F828593850E94C818B7
:10128000D8011B969C938E931A97F80182829382C1
:10129000A482B582C60140E050E0BA01A4E0EA2E83
:1012A000F12C98012A5F3F4FDC011596EC911597C0
:1012B00016964C901697512C712C612C32015524A6
:1012C00044245E2A1496EC9114974E2A1796EC91BA
:1012D0007E2AD7011701E4E02E0E311C710104961D
:1012E000F80182809380A480B580481559056A056D
:1012F0007B05A8F446825782608671861497A28483
:10130000B384AA0DBB1DE4E0BE2EF90101900D923D
:10131000BA94E1F74F5F5F4F6F4F7F4FC5CF848522
:101320009585A685B78584159505A605B70570F43E
:10133000B201660F771F660F771F848995890E9417
:10134000C818D80155969C938E935497F8014486FB
:10135000558666867786C601820D931D412C512CD9
:1013600032011C019801205F3F4FDC0111966C9106
:10137000119712968C901297912CB12CA12C54019C
:1013800099248824962A6C91862A13966C91B62A01
:10139000B4E0EB0EF11CF801448555856685778530
:1013A0004416550666067706C0F4808A918AA28A9A
:1013B000B38ABC0162197309A489B589A60FB71F46
:1013C00064E0F90101900D926A95E1F7BFEF4B1AC5
:1013D0005B0A6B0A7B0A0496C8CF86899789A08D21
:1013E000B18D88159905AA05BB0560F4B401660F97
:1013F000771F848D958D0E94C818D8015D969C93A7
:101400008E935C97F801868A978AA08EB18E412CC4
:10141000512C32011801FAE12F0E311CF801868996
:101420009789A08DB18D481659066A067B0608F08B
:101430005CC0B6016E0D7F1DCE0101960E94BD04F9
:1014400097012C5F3F4F3E872D8789809A80AB8024
:10145000BC80C901032E000CAA0BBB0BAC01BD0163
:10146000480D591D6A1D7B1D49875A876B877C87EC
:10147000F901EC0DFD1D9F012C193D09B90190E00A
:1014800080E029853A854B855C8562177307840760
:10149000950728F42191DF0112972C93ECCFED846E
:1014A000FE84E80CF91CF601EE0DFF1D3197108249
:1014B0008D859E8501978C0D9D1DD8015B969C9313
:1014C0008E935A97C201880F991F5C96ED91FC91FB
:1014D000E80FF91FD1018D919C9191838083BFEF1B
:1014E0004B1A5B0A6B0A7B0A99CFC7012E960FB67F
:1014F000F894DEBF0FBECDBFDF91CF911F910F914A
:10150000FF90EF90DF90CF90BF90AF909F908F9023
:101510007F906F905F904F903F902F9008952F9203
:101520003F924F925F926F927F928F929F92AF9273
:10153000BF92CF92DF92EF92FF920F931F93CF93C0
:10154000DF93CDB7DEB7A6970FB6F894DEBF0FBE18
:10155000CDBF8C010E947E034B015C019801255494
:101560003D4F3E8B2D8BF90180819181A281B3810A
:1015700075016401C81AD90AEA0AFB0AD701C60133
:10158000893F9A42A105B10510F0359710821801E4
:1015900034E5231A3DEF330AD1018D919C91892BBB
:1015A00079F0F801E154FD4F80819181A281B381EE
:1015B00088159905AA05BB0518F4F101118210825E
:1015C00098012C543D4F3A8B298BA80140555D4F13
:1015D0005C8B4B8BC8014896988F8F8BD801AA548F
:1015E000BD4FBC8FAB8FF801EC53FD4FFE8FED8FDD
:1015F000215F3F4F38A32F8F42505109588B4F879F
:1016000086569D4F9A8F898F1996BAA3A9A3A501D3
:1016100094012C5E3F4F4F4F5F4F2BA33CA34DA334
:101620005EA3F80184899589A689B789892B8A2BBD
:101630008B2BB9F5D80112968D919C91DC01ED911F
:10164000FC910284F385E02D09959C0197FF3DC034
:10165000F801EA54FD4F8081882301F17801B9E453
:10166000EB1ABDEFFB0AF70180819181A281B38162
:10167000A5019401281B390B4A0B5B0BDA01C90148
:10168000853C9940A105B10548F0C8010E94850438
:10169000D7018D929D92AD92BC92139790E080E01D
:1016A000B8C10E947E03681979098A099B09F8016B
:1016B000C488D588E688F788C616D706E806F906EE
:1016C00008F0B8CF8EEF9FEFA4C1A989BA898D9198
:1016D0009C911197820F931F8D939C93F1014081F0
:1016E000518147305105F9F4A98DBA8D8D919C91A6
:1016F0001197AC014F5F5F4F4D935C93800F911F2B
:10170000FC01208FAF85B8898D919C91119701972D
:101710008D939C93892B09F084CF88E090E0F101B0
:10172000918380837ECF4115510521F52F3F3105EF
:1017300081F481E090E091838083CBA0DCA0EDA0D8
:10174000FEA0A9A1BAA1CD92DD92ED92FC921397D1
:1017500068CF0E947E03681979098A099B09693854
:1017600073418105910508F45CCFF801EA54FD4FFF
:101770001082A8CF4130510589F42E3F310519F46C
:1017800082E090E0CCCF11821082EB8DFC8D8081C5
:10179000811147CFC8010E94850443CF42305105D3
:1017A00091F4AF85B8892D933C93E98DFA8D118220
:1017B000108283E090E0D1018D939C93E989FA89AE
:1017C000318320832ECF4330510571F4322F2227ED
:1017D000AF85B8898D919C911197280F391F2D9352
:1017E0003C9384E090E09BCF4430510579F460E075
:1017F00071E00E949A188F3F910529F485E090E0EE
:10180000918380830ECF118210820BCF453051051A
:1018100069F4AB89BC892D933C9386E090E0918379
:101820008083A989BA892D933C93FBCE463051051C
:10183000A1F4322F2227EB89FC8980819181280F26
:10184000391F3183208387E090E0D1018D939C93F1
:10185000EF85F889808191815DCF4830510509F08D
:10186000E0CE1182108260E071E00E949A188F3FF2
:10187000910509F0D6CEAB89BC89ED91FC913097EA
:1018800009F0E0C0C8010E94850482E491E09A83D7
:1018900089831C821B828FE092E09E838D839887D0
:1018A0008F839A8789871B861C861D861E86680102
:1018B000B8EBCB1ABDEFDB0A7801E6E8EE1AEDEFE4
:1018C000FE0A28E1422E55245394612C712CD60136
:1018D000ED91FC913097A9F1848195819C838B8354
:1018E000808191819E838D8382819381DC01ED9142
:1018F000FC910480F581E02D099598878F83D601AE
:10190000ED91FC9182819381DC01ED91FC91068047
:10191000F781E02D09959A8789874B865C866D86CD
:101920007E86D601ED91FC9160857185D801ED919F
:10193000FC910190F081E02DAE014F5F5F4FC80137
:101940000995B2E0CB0ED11CEC14FD0409F0BFCF19
:1019500098E1492E55245394612C712CF701A081F4
:10196000B1811097E1F112968D919C9113979C8310
:101970008B8314968D919C9115979E838D83ED9109
:10198000FC9111970480F581E02DCD010995988790
:101990008F83D7018D919C91DC01ED91FC910680A4
:1019A000F781E02D09959A8789874B865C866D863D
:1019B0007E86D801ED91FC91C080D180F7018081B5
:1019C0009181DC01ED91FC910280F381E02D09957C
:1019D000AE014F5F5F4FBC01C801F6010995F2E00F
:1019E000EF0EF11CE214F30409F0B8CFF801EA5449
:1019F000FD4F81E08083319680829182A282B38202
:101A0000AD89BE898D929D92AD92BC9213978FEF56
:101A10009FEFA6960FB6F894DEBF0FBECDBFDF9145
:101A2000CF911F910F91FF90EF90DF90CF90BF90DB
:101A3000AF909F908F907F906F905F904F903F906E
:101A40002F900895EA30F10509F0A1C08EE491E0ED
:101A50009A8389831B821C821D821E821F821886A4
:101A600019861A860E947E03F801C084D184E2841C
:101A7000F3849B01AC012C193D094E095F096901F2
:101A80007A016F89788DCE0101960E94CC06C7013C
:101A9000B60128EE33E040E050E00E940F166901E5
:101AA0007A019B01AC018B819C81AD81BE818C0D43
:101AB0009D1DAE1DBF1D8B839C83AD83BE8360E4E3
:101AC00072E48FE090E00E947E18CF80D884E98491
:101AD000FA84DC01CB018C0D9D1DAE1DBF1D8F83D3
:101AE0009887A987BA870E947E03CF80D884E9842B
:101AF000FA8436E3D31A35E6E30A34ECF30A28EE27
:101B000033E040E050E00E940F1629013A019B01AA
:101B1000AC0160E472E48FE090E00E947E18A701BF
:101B20009601261B370B480B590BCA01B9012B81B3
:101B30003C814D815E812150310941095109690182
:101B40007A01C418D508E608F7082601370120E015
:101B50003AEC4AE95BE30E940F16420E531E641EE4
:101B6000751ED8011C964D925D926D927C921F97C6
:101B7000F801608B718B828B938B0E947E03AD8901
:101B8000BE896D937D938D939C9313974ACDE630D8
:101B9000F10559F46F89788D8D8D9E8D0E940C0909
:101BA00081E0EF8DF8A180833CCDEB30F10521F48D
:101BB000AB8DBC8D1C9235CDE752FF4FEE0FFF1F52
:101BC000E00FF11F80819181009709F42ACDDC019B
:101BD000ED91FC910190F081E02D6F89788D099550
:101BE00020CD4F925F926F927F928F929F92AF9291
:101BF000BF92CF92DF92EF92FF920F931F93CF93FA
:101C0000DF93EC017B018A81FB0180838B818183DF
:101C10008C8182838D8183833496412C512C3201B7
:101C200004E010E09F012F5F3F4FCF010296DF01DC
:101C30001396A8010C5F1F4F8A809B80AC80BD80EB
:101C4000481459046A047B04C8F4AA85BB85A40F10
:101C5000B51F14974C9111962C91119712969C9147
:101C6000129713968C9140832183928383838FEF05
:101C7000481A580A680A780A3496D4CF4C854083AB
:101C80004D85F90140832E85FC0120838F858C933F
:101C9000F701E00FF11F412C512C3201AF019F01E0
:101CA0002F5F3F4FCF010296DF0113960C5F1F4F4E
:101CB0008C849D84AE84BF84481459046A047B04D8
:101CC000D8F4CF01841B950BAC89BD89A80FB91F2F
:101CD0003C9111962C91119712969C911297139604
:101CE0008C9130832183928383838FEF481A580A23
:101CF000680A780A3496D3CF4E8940834F89F90118
:101D00004083288DFC012083898D8C93412C512C9C
:101D100032018E899F89A88DB98D481659066A06A9
:101D20007B0680F55201AA0CBB1CEC8DFD8DEA0DE3
:101D3000FB1DA081B181FD0101900020E9F73197E1
:101D40006F01CA1ADB0AA60170E060E0C701800FCC
:101D5000911F0E94EE040C5F1F4F8C8D9D8DA80E6D
:101D6000B91EF50160817181A601C701800F911F25
:101D70000E9485190C0D1D1DFFEF4F1A5F0A6F0A97
:101D80007F0AC7CFC801DF91CF911F910F91FF90BC
:101D9000EF90DF90CF90BF90AF909F908F907F900B
:101DA0006F905F904F900895EF92FF920F931F9363
:101DB000CF93DF938C017B01DC0112962C9112975B
:101DC000FB012193CF011396ED91FC91EF01099056
:101DD0000020E9F72197CE1BDF0BAE0170E060E039
:101DE0000E94EE04D80113966D917C91AE01C7015B
:101DF00005960E948519CE010596DF91CF911F911E
:101E00000F91FF90EF900895CF92DF92EF92FF92A3
:101E10000F931F93CF93DF936C01EB01DC011296BC
:101E20008C911297888313968C91139789831496BB
:101E3000ED91FC91DF010D900020E9F78D0101503B
:101E400011090E1B1F0BA80170E060E0CE01029685
:101E50000E94EE04F60164817581A801CE01069608
:101E60000E948519C8010696F601A681B781FD0179
:101E700001900020E9F731977F01EA1AFB0AA701D8
:101E800070E060E08C0F9D1F0E94EE04065F1F4F04
:101E9000D60116966D917C91A701CE01800F911FFE
:101EA0000E9485190E0D1F1DF601A085B185FD014B
:101EB00001900020E9F731977F01EA1AFB0AA70198
:101EC00070E060E0CE01800F911F0E94EE040C5F75
:101ED0001F4FD60118966D917C91A701CE01800FFE
:101EE000911F0E948519C701800F911FF60162851D
:101EF000438534852585C80FD91F688349833A8374
:101F00002B830496DF91CF911F910F91FF90EF905B
:101F1000DF90CF9008951F920F920FB60F92112469
:101F20002F933F934F935F936F937F938F939F93E1
:101F3000AF93BF93EF93FF938AE993E00E94E70189
:101F4000FF91EF91BF91AF919F918F917F916F9191
:101F50005F914F913F912F910F900FBE0F901F9067
:101F600018951F920F920FB60F9211242F938F93F3
:101F70009F93EF93FF93E091AA03F091AB038081CD
:101F8000E091B003F091B10382FD1BC0908180917C
:101F9000B3038F5F8F732091B403821741F0E091F8
:101FA000B303F0E0E656FC4F958F8093B303FF91A7
:101FB000EF919F918F912F910F900FBE0F901F90D7
:101FC00018958081F4CF1F920F920FB60F921124B3
:101FD0002F933F938F939F93AF93BF9380915A0317
:101FE00090915B03A0915C03B0915D033091590324
:101FF00023E0230F2D3758F50196A11DB11D209325
:10200000590380935A0390935B03A0935C03B093AE
:102010005D0380915E0390915F03A0916003B09196
:1020200061030196A11DB11D80935E0390935F0330
:10203000A0936003B0936103BF91AF919F918F9183
:102040003F912F910F900FBE0F901F90189526E88B
:10205000230F0296A11DB11DD2CF1F920F920FB672
:102060000F9211242F933F934F935F936F937F931E
:102070008F939F93AF93BF93EF93FF93E0910201F0
:10208000F09103010995FF91EF91BF91AF919F915D
:102090008F917F916F915F914F913F912F910F9011
:1020A0000FBE0F901F9018951F920F920FB60F92B0
:1020B00011242F933F934F935F936F937F938F934D
:1020C0009F93AF93BF93EF93FF93E0910001F09143
:1020D00001010995FF91EF91BF91AF919F918F9170
:1020E0007F916F915F914F913F912F910F900FBE14
:1020F0000F901F9018951F920F920FB60F921124F8
:102100002F933F934F935F936F937F938F939F93FF
:10211000AF93BF93CF93DF93EF93FF9380915803D7
:10212000C0919903D0E087FF24C0109285001092DF
:102130008400809158038F5F8093580380915803E7
:10214000082E000C990B8C179D0724F480915803DE
:102150008C30C4F180918400909185000496803485
:102160009C4908F47AC0809184009091850004967F
:1021700076C080915803082E000C990B8C179D0790
:10218000C4F6E09158038E2FEE0F990BFC01EE0F71
:10219000FF1FE80FF91FEB58FC4F808186FFC9CF66
:1021A000E09158038E2FEE0F990BFC01EE0FFF1FED
:1021B000E80FF91FEB58FC4F808160E08F730E949D
:1021C000C802B7CF2091840030918500E091580378
:1021D0008E2FEE0F990BFC01EE0FFF1FE80FF91F7A
:1021E000EB58FC4F81819281820F931F909389005D
:1021F00080938800E09158038E2FEE0F990BFC011D
:10220000EE0FFF1FE80FF91FEB58FC4F808186FF90
:1022100011C0E09158038E2FEE0F990BFC01EE0FC9
:10222000FF1FE80FF91FEB58FC4F808161E08F73AF
:102230000E94C802FF91EF91DF91CF91BF91AF91C2
:102240009F918F917F916F915F914F913F912F91CE
:102250000F900FBE0F901F90189580E49CE990930B
:102260008900809388008FEF80935803E3CFFC01AF
:1022700086E391E0918380838AE291E09383828375
:102280001482158216821782108611861286138692
:102290001486158616861786918B808B128A138A70
:1022A000148A158A168A178A108E118E128E138E32
:1022B000148E158E0895CF93DF9310929D03109284
:1022C0009C0388EE93E0A0E0B0E080939E0390939F
:1022D0009F03A093A003B093A10386E691E090939F
:1022E0009B0380939A0385EC90E09093A7038093DF
:1022F000A60384EC90E09093A9038093A80380EC5C
:1023000090E09093AB038093AA0381EC90E09093CC
:10231000AD038093AC0382EC90E09093AF03809385
:10232000AE0386EC90E09093B1038093B0031092DB
:10233000B3031092B4031092B5031092B60384E86D
:1023400091E090939E0480939D048AE993E090939A
:10235000A00480939F0480E091EEA0E0B0E0809321
:10236000A1049093A204A093A304B093A404109298
:10237000530788E791E0909362078093610710927A
:102380007707109278071092790710927A071092C7
:102390007E0710927D07E5EEF6E01192119287E03C
:1023A000E731F807D1F7E7E1F7E01192119287E002
:1023B000E934F807D1F7E5EBF4E08DEC95E0119204
:1023C0008E179F07E1F7EDECF5E0119286E0E53E10
:1023D000F807D9F710926307109264071092650707
:1023E0001092660710926C0710926B0710926D079F
:1023F00010926E0710926F07109270071092760776
:10240000109275071092B1041092B2041092B304A6
:102410001092B4048FE794E00E9437118AE991E0AA
:1024200090937A048093790410927B0410927C0438
:1024300010927D0410927E04C5E3D3E0D093700423
:10244000C0936F048FE794E09093720480937104BB
:10245000109278041092770485E493E090936604D8
:102460008093650489E794E09093680480936704FF
:1024700010926E0410926D048EE891E090933E04E9
:1024800080933D0483E494E00E9437118CE890E04F
:10249000909362048093610481E090E090936404DF
:1024A00080936304D0934204C093410480919903C4
:1024B0008C3058F591E0980F9093990380933A04EB
:1024C00090E0FC01EE0FFF1FE80FF91FEB58FC4FE7
:1024D00088EB9BE092838183809199038C30C8F4D0
:1024E00091E0980F909399038093370490E0FC015A
:1024F000EE0FFF1FE80FF91FEB58FC4F88EB9BE036
:1025000092838183DF91CF9108958FEF80933A0476
:10251000E3CF8FEF80933704F5CF789484B5826052
:1025200084BD84B5816084BD85B5826085BD85B577
:10253000816085BD80916E00816080936E001092F5
:102540008100809181008260809381008091810070
:102550008160809381008091800081608093800001
:102560008091B10084608093B1008091B00081605F
:102570008093B00080917A00846080937A0080918B
:102580007A00826080937A0080917A0081608093E3
:102590007A0080917A00806880937A001092C1005E
:1025A000C0919F04D091A004C090A104D090A20437
:1025B000E090A304F090A40460E079E08DE390E063
:1025C000A70196010E940F162150310941095109B6
:1025D0005695479537952795E889F98982E0808354
:1025E000C11481EED806E104F10421F0211590E137
:1025F000390798F0E889F989108260E874E88EE17B
:1026000090E0A70196010E940F162150310941095F
:1026100051095695479537952795EC85FD8530836B
:10262000EE85FF852083188EEC89FD8986E0808306
:10263000EA89FB89808180618083EA89FB898081C6
:1026400088608083EA89FB89808180688083EA8949
:10265000FB8980818F7D808310924A071092490701
:1026600010924C0710924B071092500710924F0790
:1026700010924E0710924D07A5EEB6E0FD0190E0D6
:1026800080E021913191232B09F026C2FC01EE0F4D
:10269000FF1FEB51F94F2FE634E03183208383583D
:1026A0009F4F90937404809373048DE994E090930A
:1026B00076048093750490E080E02D913D91232B6A
:1026C00009F010C2FC01EE0FFF1FEB51F94F25E698
:1026D00034E03183208383589F4F90936A04809322
:1026E00069048DE994E090936C0480936B04E7E1B6
:1026F000F7E090E080E021913191232B09F0F8C1BF
:10270000FC01EE0FFF1FE95EF84F2DE334E031834B
:1027100020838C599F4F9093400480933F0482E024
:1027200090E0909365038093640383E090E090933E
:1027300067038093660360E082E00E94F60260E037
:1027400083E00E94F60282E00E949F0221E0892B32
:1027500009F420E02093620383E00E949F0221E0BD
:10276000892B09F420E0209363032CED35E03093AE
:102770006E0320936D033093700320936F0388E3FF
:1027800095E09093010180930001809169008C7F16
:10279000816080936900E89A8CE395E0909303014F
:1027A0008093020180916900837F84608093690037
:1027B000E99A10926C0381E0809373031092740382
:1027C00030936B0320936A0330936903209368036B
:1027D00080913A048C3008F043C061E089E00E94A7
:1027E000F60280913A04282F30E0F901EE0FFF1F26
:1027F000E20FF31FEB58FC4F9081907C996090831F
:1028000010923B0410923C042CE0622F0E948E1820
:1028100090E0829FB001112430E020E0AB01420F34
:10282000531FFA01EE0FFF1FE40FF51FEB58FC4F8B
:10283000408146FD07C02F5F3F4F2C30310571F7B7
:102840000E94C203E0913A048E2F90E0FC01EE0F4B
:10285000FF1FE80FF91FEB58FC4F808180648083D5
:10286000809137048C3008F043C061E08AE00E9418
:10287000F60280913704282F30E0F901EE0FFF1F98
:10288000E20FF31FEB58FC4F9081907C9A6090838D
:1028900010923804109239042CE0622F0E948E1896
:1028A00090E0829FB001112430E020E0AB01420FA4
:1028B000531FFA01EE0FFF1FE40FF51FEB58FC4FFB
:1028C000408146FD07C02F5F3F4F2C30310571F727
:1028D0000E94C203E09137048E2F90E0FC01EE0FBE
:1028E000FF1FE80FF91FEB58FC4F80818064808345
:1028F00061E08DE00E94F60260E08DE00E94C80277
:1029000045E0E42EF12C5AE0C52ED12C60E0662E75
:1029100060E0762E8DE994E00E948F0A00916D03AD
:1029200010916E03C0916F03D0917003C930A7E07E
:10293000DA0708F0E3C0C431B5E0DB0710F4C4E106
:10294000D5E0809173038823C9F0C8018C5D954060
:1029500097FF03C09195819591098536910564F49F
:10296000CE018C5D954097FF03C0919581959109AB
:10297000853691050CF4C5C010927303B8018AE343
:1029800094E00E948B038091740381111CC0C837AE
:1029900085E0D807C4F464E175E087E394E00E9421
:1029A0008B0364E170E080E090E00E944C036CEDEA
:1029B00075E087E394E00E948B036CE370E080E0B5
:1029C00090E00E944C034E010D2E000CAA08BB089B
:1029D00080927B0490927C04A0927D04B0927E044D
:1029E00080916B0490916C046091690470916A0409
:1029F000DC01ED91FC910190F081E02D49E754E07C
:102A00000995BE0187E394E00E948B0381E0C837FB
:102A1000D5400CF080E080937403809173038111A2
:102A2000D7C0C501B4010E945C174B015C0120E0D6
:102A300030E842EA54E40E94AD1687FD70C020E001
:102A400030E041EE54E4C501B4010E940C181816A0
:102A50000CF46DC020E030E842EA54E4C501B40152
:102A60000E9440169B01AC010E94411620E030E01C
:102A70004AEF53E40E94B21620E030E040E85FE302
:102A80000E944016609383047093840480938504AD
:102A900090938604B801110F880B990B0E945C1764
:102AA0004B015C0120E030E046E954E40E94AD16A1
:102AB00087FD44C020E030E041EE54E4C501B4019C
:102AC0000E940C1818160CF03FC0812C912C81EE3E
:102AD000A82E84E4B82E38C001968931910509F0FA
:102AE000D0CDE9CD01968931910509F0E6CDFFCD34
:102AF00001968931910509F0FECD11CEC8E0D7E0ED
:102B000020CF80916C03882309F438CF00916A03A9
:102B100010916B03C0916803D09169032FCF812C72
:102B200030E8932E32EAA32E34E4B32E93CF812CD7
:102B3000912C21EEA22E24E4B22E8CCF812C912C4C
:102B400096E9A92E94E4B92E20E030E046E954E459
:102B5000C501B4010E9440169B01AC010E944116C0
:102B600020E030E046E154E40E94B21620E030E07C
:102B700040E85FE30E944016905860939904709378
:102B80009A0480939B0490939C0480917504909187
:102B900076046091730470917404DC01ED91FC91F2
:102BA0000190F081E02D4FE754E0099564E170E079
:102BB00080E090E00E944C036114710409F4AACEF5
:102BC0000E94D301882309F4A5CE0E940000A2CE62
:102BD00020917103309172032F5F3F4F3093720346
:102BE00020937103C901B7010E949A18892BF1F64D
:102BF000C901B6010E949A1861E0892B09F060E0D2
:102C00008DE00E94C802D2CF0E943116A59F900D80
:102C1000B49F900DA49F800D911D11240895A1E2F1
:102C20001A2EAA1BBB1BFD010DC0AA1FBB1FEE1F46
:102C3000FF1FA217B307E407F50720F0A21BB30B91
:102C4000E40BF50B661F771F881F991F1A9469F70D
:102C500060957095809590959B01AC01BD01CF0169
:102C60000895A29FB001B39FC001A39F700D811D65
:102C70001124911DB29F700D811D1124911D089585
:102C80005058BB27AA270E9458160C94D2170E94AE
:102C9000C41738F00E94CB1720F039F49F3F19F485
:102CA00026F40C94C1170EF4E095E7FB0C94BB17C7
:102CB000E92F0E94E31758F3BA17620773078407D6
:102CC000950720F079F4A6F50C9405180EF4E0951C
:102CD0000B2EBA2FA02D0B01B90190010C01CA01D6
:102CE000A0011124FF27591B99F0593F50F4503E81
:102CF00068F11A16F040A22F232F342F4427585F73
:102D0000F3CF469537952795A795F0405395C9F78A
:102D10007EF41F16BA0B620B730B840BBAF0915042
:102D2000A1F0FF0FBB1F661F771F881FC2F70EC0E1
:102D3000BA0F621F731F841F48F4879577956795B4
:102D4000B795F7959E3F08F0B0CF9395880F08F0A0
:102D50009927EE0F9795879508950E94971708F485
:102D600081E008950E94C6160C94D2170E94CB17DA
:102D700058F00E94C41740F029F45F3F29F00C94EA
:102D8000BB1751110C9406180C94C1170E94E3173D
:102D900068F39923B1F3552391F3951B550BBB278A
:102DA000AA2762177307840738F09F5F5F4F220FCF
:102DB000331F441FAA1FA9F335D00E2E3AF0E0E8C6
:102DC00032D091505040E695001CCAF72BD0FE2F10
:102DD00029D0660F771F881FBB1F261737074807A4
:102DE000AB07B0E809F0BB0B802DBF01FF2793585C
:102DF0005F4F3AF09E3F510578F00C94BB170C944E
:102E000006185F3FE4F3983ED4F38695779567956F
:102E1000B795F7959F5FC9F7880F911D9695879590
:102E200097F90895E1E0660F771F881FBB1F6217AF
:102E300073078407BA0720F0621B730B840BBA0B6D
:102E4000EE1F88F7E09508950E942B176894B11142
:102E50000C94061808950E94EB1788F09F5798F07D
:102E6000B92F9927B751B0F0E1F0660F771F881F8F
:102E7000991F1AF0BA95C9F714C0B13091F00E94A9
:102E80000518B1E008950C940518672F782F88274E
:102E9000B85F39F0B93FCCF3869577956795B395D0
:102EA000D9F73EF490958095709561957F4F8F4F3F
:102EB0009F4F0895E89409C097FB3EF49095809544
:102EC000709561957F4F8F4F9F4F9923A9F0F92FF0
:102ED00096E9BB279395F695879577956795B7956E
:102EE000F111F8CFFAF4BB0F11F460FF1BC06F5F54
:102EF0007F4F8F4F9F4F16C0882311F096E911C066
:102F0000772321F09EE8872F762F05C0662371F086
:102F100096E8862F70E060E02AF09A95660F771F9A
:102F2000881FDAF7880F9695879597F90895990F76
:102F30000008550FAA0BE0E8FEEF16161706E80783
:102F4000F907C0F012161306E407F50798F0621BA4
:102F5000730B840B950B39F40A2661F0232B242B79
:102F6000252B21F408950A2609F4A140A6958FEF98
:102F7000811D811D089597F99F6780E870E060E0EA
:102F800008959FEF80EC089500240A941616170602
:102F900018060906089500240A941216130614064A
:102FA00005060895092E0394000C11F4882352F0AD
:102FB000BB0F40F4BF2B11F460FF04C06F5F7F4F65
:102FC0008F4F9F4F089557FD9058440F551F59F04C
:102FD0005F3F71F04795880F97FB991F61F09F3F06
:102FE00079F087950895121613061406551FF2CF2F
:102FF0004695F1DF08C0161617061806991FF1CF7F
:1030000086957105610508940895E894BB276627A5
:103010007727CB0197F908950E94971708F48FEF4F
:1030200008950E9424180C94D2170E94C41738F0F7
:103030000E94CB1720F0952311F00C94BB170C9431
:10304000C11711240C9406180E94E31770F3959F82
:10305000C1F3950F50E0551F629FF001729FBB278F
:10306000F00DB11D639FAA27F00DB11DAA1F649F2B
:103070006627B00DA11D661F829F2227B00DA11DDE
:10308000621F739FB00DA11D621F839FA00D611D64
:10309000221F749F3327A00D611D231F849F600D85
:1030A000211D822F762F6A2F11249F5750409AF0AE
:1030B000F1F088234AF0EE0FFF1FBB1F661F771F3A
:1030C000881F91505040A9F79E3F510580F00C9405
:1030D000BB170C9406185F3FE4F3983ED4F3869533
:1030E00077956795B795F795E7959F5FC1F7FE2BA5
:1030F000880F911D9695879597F90895DB018F9319
:103100009F930E940416BF91AF91A29F800D911DC5
:10311000A39F900DB29F900D11240895991B79E003
:1031200004C0991F961708F0961B881F7A95C9F757
:103130008095089597FB072E16F4009407D077FD2D
:1031400009D00E94AE1807FC05D03EF490958195F9
:103150009F4F0895709561957F4F0895AA1BBB1BE3
:1031600051E107C0AA1FBB1FA617B70710F0A61B87
:10317000B70B881F991F5A95A9F780959095BC01A8
:10318000CD010895EE0FFF1F0590F491E02D0994F5
:10319000B0E0A0E0EEECF8E10C94B51A8C010097D9
:1031A00051F4CB010E948E198C01C801CDB7DEB756
:1031B000E0E10C94D11AFC01E60FF71F9C012250AC
:1031C0003109E217F30708F49DC0D901CD91DC91D4
:1031D0001197C617D70798F0C530D10530F3CE0147
:1031E00004978617970708F3C61BD70B2297C1933E
:1031F000D1936D937C93CF010E942A1AD6CF5B01A5
:10320000AC1ABD0A4C018C0E9D1EA0918107B09195
:103210008207512C412CF12CE12C109731F5809133
:103220007F07909180078815990509F05CC04616C4
:10323000570608F058C0809104019091050100974D
:1032400041F48DB79EB74091080150910901841B4C
:10325000950BE817F90708F055C0F0938007E09345
:103260007F07F90171836083A0CF8D919C911197A5
:1032700012966C90129713967C901397A815B90527
:1032800059F56C0142E0C40ED11CCA14DB0420F1D4
:10329000AC014A195B09DA011296159780F0628237
:1032A000738251834083D9016D937C93E114F104BF
:1032B00071F0D7011396FC93EE93129776CF229676
:1032C0008C0F9D1FF90191838083F301EFCFF09361
:1032D0008207E093810769CF4816590608F42C014C
:1032E0007D01D3019ACFCB010E948E197C010097FA
:1032F00049F0AE01B8010E948519C8010E942A1A3E
:10330000870153CF10E000E050CFFB01DC0102C089
:1033100001900D9241505040D8F708950F931F939C
:10332000CF93DF938230910510F482E090E0E0913A
:103330008107F091820730E020E0B0E0A0E0309714
:1033400099F42115310509F44AC0281B390B2430A2
:103350003105D8F58A819B816115710589F1FB01E1
:1033600093838283FE0111C04081518102811381C8
:1033700048175907E0F04817590799F4109761F07A
:1033800012960C93129713961C933296CF01DF91ED
:10339000CF911F910F910895009381071093820799
:1033A000F4CF2115310551F04217530738F0A90128
:1033B000DB019A01BD01DF01F801C1CFEF01F9CFB7
:1033C0009093820780938107CDCFFE01E20FF31F18
:1033D000819391932250310939832883D7CF20914B
:1033E0007F0730918007232B41F420910601309113
:1033F00007013093800720937F07209104013091CB
:1034000005012115310541F42DB73EB74091080162
:1034100050910901241B350BE0917F07F091800743
:10342000E217F307A0F42E1B3F0B2817390778F09B
:10343000AC014E5F5F4F2417350748F04E0F5F1FFA
:103440005093800740937F07819391939FCFF0E043
:10345000E0E09CCFCF93DF930097E9F0FC01329737
:1034600013821282A0918107B0918207ED0130E0B2
:1034700020E01097A1F420813181820F931F2091C9
:103480007F07309180072817390709F061C0F09352
:103490008007E0937F07DF91CF910895EA01CE176F
:1034A000DF07E8F54A815B819E0141155105B1F7BF
:1034B000E901FB83EA8349915991C40FD51FEC17A9
:1034C000FD0761F4808191810296840F951FE901C7
:1034D00099838883828193819B838A83F0E0E0E0F3
:1034E00012968D919C9113970097B9F52D913C916F
:1034F0001197CD010296820F931F20917F07309183
:1035000080072817390739F6309751F5109282074E
:1035100010928107B0938007A0937F07BCCFD3831D
:10352000C28340815181840F951FC817D90761F468
:103530004E5F5F4F88819981480F591F51834083A7
:103540008A819B81938382832115310509F0B0CF55
:10355000F0938207E09381079ECFFD01DC01C0CF8D
:1035600013821282D7CF2F923F924F925F926F9227
:103570007F928F929F92AF92BF92CF92DF92EF9203
:10358000FF920F931F93CF93DF93CDB7DEB7CA1B84
:10359000DB0B0FB6F894DEBF0FBECDBF09942A88AF
:1035A000398848885F846E847D848C849B84AA8457
:1035B000B984C884DF80EE80FD800C811B81AA81E4
:1035C000B981CE0FD11D0FB6F894DEBF0FBECDBFAF
:0835D000ED010895F894FFCF0E
:1035D8008A038A03000083078000726F7373657221
:1035E80069616C5F6D7367732F526571756573746C
:1035F800506172616D0000000000C008EB076A05A9
:10360800670500000000F0081508DC03D903000076
:103618000000040FD505D205CF05000000001207F1
:10362800CC06C906C60600000000D40E790576054A
:103638007305000000000902690196015602C701DE
:10364800A501B90100000000F10D0C0970056D0518
:1036580000000000E3038F0AD403000000003108D3
:10366800DF03DC03D90300000000530546054305CA
:103678004005396631393566383831323436666452
:10368800666132373938643164336565626361383D
:1036980034610067656F6D657472795F6D73677308
:1036A8002F5477697374004D65737361676520667D
:1036B800726F6D206465766963652064726F7070DF
:1036C80065643A206D657373616765206C61726724
:1036D8006572207468616E206275666665722E0078
:1036E80064613539303966626533373861656166DA
:1036F800383565353437653833306363316262375E
:10370800007374645F6D7367732F496E743332008E
:1037180034613834326236356634313330383464A3
:103728006332623130666234383465613766313706
:103738000067656F6D657472795F6D7367732F5677
:103748006563746F72330039663065393862646155
:1037580036353938313938366464663533616661EF
:10376800376134306534390031316162643733315F
:103778006332353933333236316364363138336244
:10378800643132643632393500726F737365726929
:10379800616C5F6D7367732F4C6F670030616435C0
:1037A80031663838666334343839326638633130D4
:1037B80036383430373736343630303500726F7338
:1037C80073657269616C5F6D7367732F546F70698D
:1037D80063496E666F006364373136366337346326
:1037E800353532633331316662636332666535611C
:1037F800376263323839007374645F6D7367732F8F
:1038080054696D65002F72616365722F636F6D6D0A
:10381800616E6473002F72616365722F70776D003B
:00000001FF
